:020000040000FA
:10000000B8030020D5000000510B00004D0B00008C
:1000100000000000000000000000000000000000E0
:100020000000000000000000000000007D0B000048
:100030000000000000000000530B0000AD0B0000AA
:10004000E7000000E7000000E7000000E700000014
:10005000E700000000000000E7000000010C0000C5
:10006000E7000000490C0000E7000000E700000086
:10007000E7000000E7000000E7000000E7000000E4
:10008000E7000000E7000000E7000000E7000000D4
:10009000E7000000E7000000E7000000E7000000C4
:1000A000E7000000E7000000E7000000E7000000B4
:1000B000E7000000E7000000E7000000E7000000A4
:1000C0000348854600F034F800480047ED0D000075
:1000D000B80300200448804704480047FEE7FEE7D5
:1000E000FEE7FEE7FEE7FEE7B50B0000C1000000FB
:1000F00070B50446002903D000202022012310E01F
:10010000002801D00020C043C046C0460DE025466F
:10011000D5408D4205D30D469540641B1D46954044
:1001200040191546521E002DF1DC214670BD00001D
:100130001CB5094800900948019005460126009C1D
:1001400005E0E36807CC33430C3C98471034AC42DD
:10015000F7D3FFF7B9FF0000CC0F0000EC0F000051
:1001600001BE7047F0B589B002464832009202469F
:100170004C32019200242346264608910AE03D4372
:1001800085620899069C079BA41C1B1D761C102EDB
:1001900000D1DDE001252F46B7400A683A42F3D08E
:1001A00003950169B9430161016AB9430162416A7A
:1001B000B9434162816AB94381621C221A400F250A
:1001C0009540082131400491079301D1482100E076
:1001D0004C214358AB4343500168B9430160416B24
:1001E000B9434163016C394301640323A340C16BEC
:1001F00005939943C163E943029108994B68042B25
:10020000069321D0032B13D0022B2CD10499002963
:10021000019900D100990968029B1940089B1D6B48
:1002200095400D430499002925D001990D602AE0DD
:10023000049A002A019900D1009909682943002AEB
:1002400016D0019A11601EE0049A002A019900D18B
:1002500000990968029D2940002A089A039D0DD043
:10026000019B196011E00268012B0AD13A4309E0B1
:10027000009A116007E000990D6004E0009B19608E
:1002800003E0BA430260089A039D1369012B06D16B
:100290009169826B0A438263426B3A430CE0516975
:1002A000426BBA434263012907D1816B102291430B
:1002B0008163E907426B0A4342630599CA43F943E4
:1002C0000591416B2546090404D01901836B0B434A
:1002D000836303E0816B102399438163C46B1440F3
:1002E00008998B68AB402343C3634468059A144064
:1002F000CB68B34023434360046C1440CB69B340E4
:1003000023430364446C14400B6AB34023432C46DC
:100310004364069BDB00079B00D435E70694046921
:1003200014404B6AB34023430361046A14408B6A50
:10033000B34023430362CB6A856A012B00D91EE7D1
:1003400015408562B340416A11401943416218E784
:1003500009B0F0BD054800687047C046784800788D
:1003600002490A68101808607047C046B0010020B2
:1003700080B5032000F004F800F022F8002080BDD2
:10038000B0B504467D20C0006D490978FFF7B0FE86
:1003900001466E480068FFF7ABFE00F0C5FA012584
:1003A000032C08D8002806D10025E843214600F098
:1003B00008F8024804602846B0BDC0460800002086
:1003C000704780B500F0F2FC80BD0000F0B581B050
:1003D000044600688107544E11D5410707D53146C0
:1003E00020390A68FF239A43E36813430B603146C0
:1003F00024390A68FF239A43A36813430B60C0079C
:1004000026D12078400707D5304620380168FF22E2
:100410009143E2680A430260243E3068050600F01A
:10042000A5F8002D04D040083168C9B2FFF760FE7E
:10043000464908606068082801D0042802D1404875
:100440000A2101700320FFF79BFF002001B0F0BDDF
:100450006068042807D0022832D0012836D171689C
:10046000C90403D42FE0F168C9042CD52F494A1CD4
:10047000F2632F4A104032682E4B1340C0182E4AA8
:1004800080183060F163FFF765FF05466068401E25
:100490000728B6D87844007940008744041B032815
:1004A00003030336ADE7254F30680F2101400129D2
:1004B000A7D0FFF74FFF411B0320B942F4D9C5E78E
:1004C000B1684906D2D4012001B0F0BD31694906B6
:1004D000F9D5CBE7194F30680F210140022990D0A0
:1004E000FFF738FF411B0320B942F4D9AEE7134FA1
:1004F00030680F210140042900D182E7FFF72AFF6D
:10050000411B0320B942F3D9A0E70C4F30680F21FB
:100510000140082900D174E7FFF71CFF411B0320AD
:10052000B942F3D992E7C046240002409866AA5522
:100530000F0096A5F0FF00000000695A8813000024
:1005400004000020014800687047C04600000020F9
:10055000B0B5054C2568FFF7F5FF002D03D0400826
:100560002168FFF7C5FDB0BD0400024010B5134877
:10057000011F0A680F21114004290CD002290DD057
:1005800001290DD103680F490B400F4A1488A3427B
:1005900009D10E4810BD4B20400210BD084810BDC7
:1005A0000120C00310BD03680B4091888B4202D12B
:1005B000E120000410BD0068054810BD280002407D
:1005C00000127A00FF0F0000A000001800366E0134
:1005D00000093D00F0B581B000900078C007C74F1A
:1005E000C74C71D038463C3800680F2101400129C2
:1005F0001CD10125384638380168C904009B03D452
:100600005968012900D075E1611C396007214A024F
:1006100099680B46134007D0934205D02A03521E17
:100620001140B84A114301603C604DE0009B59689D
:10063000601C386000292CD0254607214A029968A1
:100640000B46134001242603002B08D0934206D00A
:10065000721E1140AB4A11433A46383A11602C469B
:100660003D603860A748401C394640390A6802435B
:100670000A603D60FFF76EFE054638463838006870
:10068000304221D1FFF766FE401B0228F5D9032531
:1006900030E19D48FF30394640390A6802409948A8
:1006A00002430A603C6001200603FFF753FE054643
:1006B000384638380068304206D0FFF74BFE401B02
:1006C0000228F5D9032515E100980078000754D5D4
:1006D000009B5969601C386000292FD026463C4693
:1006E000303F3A6889490A4019469B691343854A55
:1006F00013433B60266020600325AA023B68134039
:10070000CA6982490A4099187E4A114339602660B5
:100710002060101D214640390A6802430A602660A5
:1007200001200403FFF716FE06463868204220D158
:10073000FFF710FE801B0228F7D9DBE07248FC307F
:10074000394640390A6802406E4802430A603C60FC
:1007500001200603FFF7FEFD0546384630380068E5
:1007600030420AD0FFF7F6FD401B0228F5D90325D9
:10077000C0E000F0EFF9614F614C0098007880070D
:100780005FD538463C3800680F21014002290AD164
:10079000384634380068400653D500980069002870
:1007A0004FD10125A6E0601C386000980269002A3C
:1007B00008D0022A534D1ED1A91C38464038006883
:1007C00008432BE05048FE30394640390A68024061
:1007D0004C4802430A603C60FFF7BCFD06463846C1
:1007E0003438006840062CD5FFF7B4FD801B032584
:1007F0006428F4D97EE0394640390868202A03D1BC
:1008000029462031084309E03F4A1346FE33184089
:1008100028430860E03208681040284339464039D0
:1008200008603C60FFF796FD05463846343800689E
:10083000400606D4FFF78EFD401B6428F5D903253A
:1008400058E0009908780025400753D5601C3860AF
:10085000096A002909D001200002814226D13846C8
:100860002C3801682D48084333E03E462C3E306862
:10087000274901402348024601433160306822493C
:1008800001401143316030682249014331603C60CE
:10089000214FFFF75FFD0446306840062AD5FFF779
:1008A00059FD001BB842F7D9032523E038462C3800
:1008B0000268154B1340134E334303600068134A1C
:1008C000521C914202D11749084302E014490840E2
:1008D00030433E462C3E30603C600F4FFFF73AFD00
:1008E00004463068400605D4FFF734FD001BB842CB
:1008F000F7D90325284601B0F0BDC046600002408C
:100900009866AA550000695AFFFE96A5FF010000EF
:10091000FFFB96A50004695A881300000001695A7C
:10092000FFFD96A50002695A80B500F029F980BD47
:10093000B0B5002815D0044605462C356878002847
:1009400004D100202870204600F00EF824206870A2
:10095000204600F099F90020206320216970A970D9
:10096000B0BD0120B0BD0000F0B58FB034490A68B9
:10097000012632430A600A6832400292029A0A68EB
:1009800002273A430A600A683A400292029A0068D3
:100990002C4A90422AD02C4A90424FD1B0054A6846
:1009A00002434A6049682A4C0025E561256280229D
:1009B00008230193236384C426606560A560014019
:1009C000029102982148083C2146FFF7CBFBE561E4
:1009D000256201982063C0C425606560A5601D483C
:1009E000083C2146FFF7BEFB0FB0F0BD4868384316
:1009F0004860486838400290029800240D940C9496
:100A00000B94089407940A94099406940594039708
:100A1000102002900E9604960C4802AD2946FFF76E
:100A2000A1FB0A9409940694059403970820029068
:100A30000E96049405482946FFF794FB0FB0F0BDCD
:100A40000800024000040040000600400010024080
:100A50001000002000140240B0B503462E20185CA0
:100A60000224202820D1012000291CD0002A1AD0DD
:100A70001D462C3528780128204614D05A851A8521
:100A800059620020186328702221A97019680A6829
:100A9000102313430B604A69052313434B610A6813
:100AA000012313430B60B0BD2046B0BD70B52D23AC
:100AB000C35C0224202B0CD10123002907D0002A7B
:100AC00005D005462C352B78012B234603D118463B
:100AD00070BD204670BD42840284C161002303635F
:100AE0002B7021226A700268146802252543156064
:100AF0000469002C0ED0C02C01D0802C1AD144697E
:100B0000022C0CD0012C15D10C780F4D2C5DE40774
:100B1000240F0AE014681025AC4314600AE00C7836
:100B2000094D2C5DE5000824AC4315680826B54343
:100B3000254315600C785460491CC161418C491EE5
:100B40004184184670BDC046CA0E000000BE704702
:100B50007047704780B582B0074800687D218901E1
:100B6000FFF7C6FA019000BF0198411E01910028CD
:100B7000F9D102B080BDC0460000002070470000DF
:100B8000B0B5401E010E02D001242046B0BD064D76
:100B900068600024E043032100F008F9AC600720FE
:100BA00028602046B0BDC04610E000E080B5FFF7E9
:100BB000D5FB80BD0E494A1C0E4802600246403AF1
:100BC0000D4B136001600246603A0021116002463D
:100BD0005C3A11600246583AFF230A33136002461A
:100BE000543A116050380160044801607047C046B3
:100BF0009866AA55600002400100695A08ED00E0BD
:100C0000F0B581B0A44F38680069C0071AD0A04D74
:100C1000A54E0224284631462246FFF747FFA0484A
:100C20000178491C017038684168317041690522BA
:100C30000A434261016801220A430260286841694F
:100C40002143416101B0F0BD70B5914D2868006944
:100C5000C00718D0944E0224284631462246FFF79A
:100C600025FF8F480178491C017028684168317060
:100C7000416905220A434261016801220A43026078
:100C800041692143416170BDF0B583B004462D2018
:100C90000101206802688A43A168114322690A435E
:100CA000A16911430160617B002906D0012109047B
:100CB00082698A43826103B0F0BDFFF749FCA168F5
:100CC0008905C90F8840009461680191490102902B
:100CD000FFF70EFA441C0526174D274603E0761E43
:100CE0000D46074614D0A0B241010298FFF700FA62
:100CF000019A111A00D2811AA942204600D338461F
:100D0000A94200D32946641E2204E8D10124E6E763
:100D100081B20129009901D8012000E0401E80B273
:100D200009688A69054B13401818034A521C02438C
:100D30008A6103B0F0BDC046FFFF00000000FEFF67
:100D4000B0B58EB000240D940C940B940A940994C1
:100D50000894012506950595049403940294019442
:100D60000B480088079005A8FFF734FC002801D045
:100D7000FFF7F6F90494039402950720019001A867
:100D8000FFF724FB002801D0FFF7EAF90EB0B0BD51
:100D9000A0000018002805D41F210840012181402F
:100DA000014801607047C04600E100E0002805D41A
:100DB0000322034693430C4A9A1806E00F2202408E
:100DC000083A03239A43074BD2188007C00E8901C3
:100DD000C9B28140FF2383401068984308431060E4
:100DE0007047C0461CED00E000E400E082B0FFF771
:100DF000BFFAFFF7A5FF264C1020019000274026E0
:100E000026616761A0614B20C501224821C4083CCE
:100E10002046FFF78DFD20480661476101998161F9
:100E20001E4922C00838FFF783FD0920FFF7B2FFF3
:100E30001B4E30781B490918012201922046FFF70A
:100E40000BFE206801680225A94301600720FFF717
:100E5000A1FF3078134909180F48019AFFF7FCFDEC
:100E60000CE02068016829430160072220460E49F2
:100E7000FFF71CFE7F1C2D202021215430780028F4
:100E8000FCD0401E3070072FEBD90027F3E7C04697
:100E900044000020000600407800002000040040CC
:100EA000AD010020AD000020AC00002002E008C829
:100EB000121F08C1002AFAD170477047002001E0D4
:100EC00001C1121F002AFBD170470001010001007F
:100ED000000101000001000101000100000100010A
:100EE00001000001010001000001010000010001FA
:100EF00001000001010001000001000101000100EA
:100F000000010100000100010100010000010001D9
:100F100001000001010001000001000101000100C9
:100F200000010100000100010100000101000100B9
:100F300000010100000100010100010000010001A9
:100F40000100000101000100000101000001000199
:100F50000100000101000100000100010100010089
:100F60000001010000010001010000010100010079
:100F70000001010000010001010001000001000169
:100F80000100000101000100000100010100010059
:100F90000001010000010001010001000001000149
:100FA0000100000101000100000101000001000139
:100FB0000100000101000100000100010100010029
:100FC000000101000001000101000000F00F00001D
:100FD0000000002010000000AC0E00000010000017
:100FE00010000020A8030000BC0E0000000000005C
:100FF00000093D00010000000400000000000000A6
:04000005000000C136
:00000001FF
